:020000040800F2
:10000000004002209D9E00082D9C0008339C0008A3
:1000100000000000000000000000000000000000E0
:10002000000000000000000000000000C9E8000817
:100030000000000000000000F1E9000825C90008E8
:10004000ED9E0008ED9E0008ED9E0008ED9E000864
:10005000ED9E0008ED9E0008ED9E0008ED9E000854
:10006000ED9E0008ED9E0008ED9E0008ED9E000844
:10007000ED9E0008399C0008ED9E0008ED9E0008EA
:10008000ED9E0008ED9E0008ED9E0008519C0008C2
:10009000ED9E0008699C00088D9C0008ED9E0008FC
:1000A000ED9E0008ED9E0008ED9E0008ED9E000804
:0C00B000ED9E0008ED9E0008ED9E00088B
:1000C00010B5064C2378002B07D1054B002B02D02E
:1000D000044800E000BF0123237010BDF00400209D
:1000E0000000000090FF0008044B10B5002B03D067
:1000F0000349044800E000BF10BDC04600000000F6
:10010000F404002090FF00080023C25C0133002AA1
:10011000FBD1581E7047000003B4714649084000E7
:100120004900095E49008E4403BC70470022430821
:100130008B4274D303098B425FD3030A8B4244D3AF
:10014000030B8B4228D3030C8B420DD3FF220902F1
:1001500012BA030C8B4202D31212090265D0030BB0
:100160008B4219D300E0090AC30B8B4201D3CB03A6
:10017000C01A5241830B8B4201D38B03C01A5241E8
:10018000430B8B4201D34B03C01A5241030B8B42EA
:1001900001D30B03C01A5241C30A8B4201D3CB02D5
:1001A000C01A5241830A8B4201D38B02C01A5241BA
:1001B000430A8B4201D34B02C01A5241030A8B42BD
:1001C00001D30B02C01A5241CDD2C3098B4201D3D5
:1001D000CB01C01A524183098B4201D38B01C01A53
:1001E000524143098B4201D34B01C01A52410309CA
:1001F0008B4201D30B01C01A5241C3088B4201D379
:10020000CB00C01A524183088B4201D38B00C01A25
:10021000524143088B4201D34B00C01A5241411A4C
:1002200000D20146524110467047FFE701B5002059
:1002300000F006F802BDC0460029F7D076E7704707
:100240007047C04680B584B000AF78607B681A788C
:100250000F217B181A707B181B781800BD4604B05C
:1002600080BD80B582B000AF78600A00FB1C1A70B8
:10027000FB1C1A787B681A7001231800BD4602B077
:1002800080BD80B582B000AF7860396039007B688E
:10029000042218000FF00BF804231800BD4602B02A
:1002A00080BD80B582B000AF78607B68002B02D043
:1002B0007B681B8800E000231800BD4602B080BDAB
:1002C00080B582B000AF786039607B68002B01D1C7
:1002D000052303E07B683A689A6000231800BD4656
:1002E00002B080BD80B586B002AFF8607A603B6036
:1002F0000B203B180A1C1A707A683B181978F868AA
:100300003B680093042301F027FD03001800BD465D
:1003100004B080BD80B586B000AFF860B9607A6087
:100320003B60FB68002B0CD0FB685B7C002B08D18A
:10033000BB68002B05D07B68032B02D93B68002BE0
:1003400001D109231DE0FB685B687B617B695B6A07
:10035000002B01D0002301E080231B063B617B6959
:1003600028229B5C80331A003B6913433B613A6946
:10037000BB6811001800FFF784FF3B6804221A6075
:1003800000231800BD4606B080BD80B586B000AF22
:10039000F860B9607A603B60FB68002B0FD0BB68E7
:1003A000002B0CD03B68002B09D07B68032B03D8B3
:1003B000FB685B7C002B02D17B68002B01D10923F9
:1003C00058E0FB685B683B613B691B7F012B01D8F0
:1003D00009234FE0FB685B7C002B0CD13B6920229A
:1003E0009A5CBB6811001800FFF73BFF3B680122D5
:1003F0001A6000233EE0FB685A7C3B6920215B5C6D
:100400009A4236D83B695B7F9AB2FB685B7C9BB2B1
:10041000D31A9AB216217B181A807B1800229B5E91
:10042000002B09DA3B691B7F9AB27B181B88D31813
:100430009AB27B181A8009E01623FB1800229B5EF3
:100440003A69127F934201DB092313E03B699A6901
:100450001623FB1800215B5EDB00D3181A68BB680B
:1004600011001800FFF70DFF3B6804221A600023FB
:1004700000E019231800BD4606B080BD80B586B0E7
:1004800000AFF860B9607A603B60FB68002B0CD06D
:10049000FB685B7C002B08D1BB68002B05D07B6818
:1004A000012B02D13B68002B01D1092312E0BB686C
:1004B0001800FFF7C7FE031E01D00F230AE0FB68F8
:1004C0005B687B617B692022002199543B68012293
:1004D0001A6000231800BD4606B080BDB0B588B0D4
:1004E00002AFF860B9607A603B601723FB18002206
:1004F0001A70FB68002B1DD07B68002B1AD03B685C
:10050000002B04D12823FB181B78012B12D8FB6A7F
:10051000002B0FD0BB68002B0CD03822BB181B78E7
:10052000002B07D0BB181B785BB2002B02DB7B6B68
:10053000002B02D101235B42C1E0FB685022002165
:1005400018000EF0C7FEFB68BA685A61786800238D
:100550000122002101F078FC0200FB68DA60FB68F0
:10056000DB68002B0DD1FB6B002B07D07B681800DC
:10057000FFF797FE03001A00FB6B1A600C235B4227
:100580009DE0FB68DB6800221A70FB683A689A619C
:10059000FA682823FB181B78137716257C1910237B
:1005A000FA18F86A01230021FFF79CFE030023706C
:1005B0007B191B785BB2002B03D13B69424A134085
:1005C00013D0FB6B002B07D0FB6A1800FFF769FE06
:1005D00003001A00FB6B1A601623FB181B785BB232
:1005E000002B02D00C235B4269E03823FB181B78F8
:1005F0009AB21423FB1880321A803B69DB43DB0F6D
:10060000DBB21A00FB685A62FB68FA681A63FB687F
:100610002E4A5A63FB682E4A9A63FB6830331A00ED
:1006200016257C19FB6A11001800FFF749FE03002C
:1006300023707B191B785BB2002B0DD0FB6B002B5A
:1006400007D0FB6A1800FFF72CFE03001A00FB6BB3
:100650001A600C235B4232E0FB683822BA1828216A
:1006600012785A541423FB181A883023FB1819885F
:10067000B8680023019308230093002307F090FB40
:100680000200FB68DA62FB68DB6A002B02D10123FF
:100690005B4214E0FB68FA681A64FB680D4A5A640E
:1006A000FB680D4A9A64FB6840331A007B6B1100AB
:1006B0001800FFF705FE1723FB181B785BB2180024
:1006C000BD4606B0B0BDC04600F8FF7F1503000868
:1006D000291900088B0300087D04000890B589B033
:1006E00002AFF860B9607A603B60FB685A69142019
:1006F0003B18528A1A80FB681B8A3A1812889A4261
:1007000000D1AFE0FB68198A12243B193A1812880D
:100710004A401A80FB6801007A1812881A823B1935
:100720001A880223FF3313400FD07B181A88022344
:10073000FF3313405A1E9341DBB21900F8680023BF
:1007400000930023012200F045F91223FB181B88B7
:100750000222134010D01423FB181B8802221340DE
:100760005A1E9341DBB21900974AF86800230093A0
:100770001300072200F02EF91223FB181B88042215
:10078000134010D01423FB181B88042213405A1E58
:100790009341DBB219008D4AF868002300931300DF
:1007A000122200F017F91223FB181B8808221340AD
:1007B00010D01423FB181B88082213405A1E9341A3
:1007C000DBB21900824AF868002300931300142258
:1007D00000F000F91223FB181B888022134010D070
:1007E0001423FB181B88802213405A1E9341DBB24E
:1007F000190081231B02F86800220092152200F0E4
:10080000E9F81223FB181A8880239B00134011D0AB
:100810001423FB181A8880239B0013405A1E93410F
:10082000DBB21900684AF86800230093130006221F
:1008300000F0D0F81223FB181A8880231B01134004
:1008400010D01423FB181A8880231B0113405A1E52
:100850009341DBB21900F86800230093132313229D
:1008600000F0B8F817217B1800221A70FB685B793A
:10087000002B05D07B187A18127801210A431A70D0
:10088000FB689B78002B03D1FB68DB78002B06D03C
:100890001722BB18BA18127810210A431A70FB6885
:1008A0001B7A002B03D1FB685B7A002B07D0172241
:1008B000BB18BA181278802149420A431A70FB68A3
:1008C000DB6817203A1812781A70BB68002B00D129
:1008D00073E0FB681B7F012B00D870E011243B19EB
:1008E000FA68927F1A70FB685B7F3A1912789A4215
:1008F00065D0FB68DB6A1B69002B60D1FB689A69D5
:100900003B191B78DB00D31819683B181B781A04B5
:10091000FB6898693B191B78DB00C3180A431A600F
:10092000FB68DB6A581DFB689A693B191B78DB0082
:10093000D318082219000EF0B1FCFB685A69FB6855
:10094000DB6A1900100007F0F3FA3B193A19127824
:1009500001321A70FB681B7F3A1912789A4202D250
:100960003B191A7800E00022FB689A77FB68DB7F6E
:10097000012B0CD1FB680222DA7780235B01F86837
:10098000002200922022012100F024F817E0FB68E9
:10099000DB7F022B13D1FB689A7FFB685B7F9A4257
:1009A0000DD1FB680022DA77F8680023009300235A
:1009B0002022002100F00EF801E0C04600E0C04611
:1009C000BD4607B090BDC0462081000040810000B8
:1009D0001081000080B58CB000AFF860B9601900DC
:1009E000FB1D1A703B1D0A1C1A80FB68002B00D1EE
:1009F000BEE02F217B18FA1D1278D2081A70FB1D59
:100A00001B780722134001229A402E203B181A70AF
:100A10007B181B78092B0CD97B1805221A703B1800
:100A200001221A703B1DC222D2011A80FB1D1B78C5
:100A3000BB632F23FB181B78FA68D318BB62BB6A11
:100A40001A7827203B182E21791809780A401A7045
:100A5000BB68002B04D03B181B78002B09D08AE020
:100A60002723FB181B78002B00D183E03B1D0022BD
:100A70001A80FB1D1B781A063B1D1B8813433B6223
:100A8000BB6BFB61FB685B69EFF310827A617A698B
:100A90001A6372B6C046BB68002B09D0BB6A1A78CD
:100AA0002E23FB181B781343DAB2BB6A1A700DE0D1
:100AB000BB6A1B785BB22E22BA18127852B2D243AC
:100AC00052B213405BB2DAB2BB6A1A70FB681B7F8A
:100AD000012B45D91B203B18FA68527F1A702D2133
:100AE0007B183A18127801321A70FB681B7F7A184B
:100AF00012789A4202D37B1800221A70FB689B7FFF
:100B00002D22BA1812789A4203D1FB680122DA77B3
:100B100026E0FB689A691B217B181B78DB00D31841
:100B20003A6A1A60FB689A697B181B78DB00D31855
:100B3000FA695A60FB682D22BA1812785A77FB6856
:100B400020229B5C1A00FB681B7F013B9A4207DA5C
:100B5000FB6820229B5C0133D9B2FB6820229954A8
:100B6000FB685B691B6B3B613B6983F3108802E0A8
:100B7000C04600E0C046BD460CB080BD80B584B024
:100B800000AF786079680C23FB18042218000EF07F
:100B90008EFBFB681800BD4604B080BD80B582B0F6
:100BA00000AF78607B68002B02D07B681B8800E078
:100BB00000231800BD4602B080BD80B582B000AFF2
:100BC000786039607B68002B01D1052303E07B68E6
:100BD0003A689A6000231800BD4602B080BD80B517
:100BE00086B002AFF8607A603B600B203B180A1CAD
:100BF0001A707A683B181978F8683B6800930423E8
:100C000001F0AAF803001800BD4604B080BD80B50D
:100C100086B000AF786039607B687B6113217B18F8
:100C20003A6812791A703B680533FB607B181B78B1
:100C3000012B07D1FB681B785AB27B695A707B691C
:100C40000122DA60C046BD4606B080BDF0B589B06D
:100C500000AFF860B9607A603B60FB685B68FB617D
:100C6000FB68002B12D0BB68002B0FD0FB685B7CAD
:100C7000002B0BD0FB685A7CFB691B7A9A4205D883
:100C80007B68042B02D13B68002B01D109232CE0A7
:100C9000BB681800FFF772FF0300BB61BB691A0C49
:100CA00017203B181A7014257B19BA691A80FB6843
:100CB0005B7C013BD9B21326BC197B191D883B18FC
:100CC0001A78F8692B0000F0EDF803002370BB19C7
:100CD0001B785BB2002B01D0082306E03B687A68E2
:100CE000B968F86800F020FE03001800BD4609B09E
:100CF000F0BD0000F0B589B000AFF860B9607A606F
:100D00001A00FB1C1A70FB68002B0BD0BB68002B71
:100D100008D07B68002B05D0BB6B002B02D0FB6B8F
:100D2000002B02D101235B42B4E0FB68302200219A
:100D300018000EF0CFFAFB68BA681A60FB687A6890
:100D40005A60FB68FA6B9A61FB68382208218C466E
:100D5000BC44624412889A83BB6B9B78FA1C12785D
:100D60009A4204D3BB6B9B78013BDBB201E0FB1CD6
:100D70001B78FA6813721F23FB1800221A7059E0BF
:100D80001F23FB181B780133D9B21E257C191423AD
:100D9000FA18B86B0123FFF722FF030023707B19B9
:100DA0001B785BB2002B0DD07B6C002B07D0BB6B8C
:100DB0001800FFF7F3FE03001A007B6C1A600C2387
:100DC0005B4267E07B691A0C1D217B181A707A69F7
:100DD0001A203B181A801926BC193B181D887B184D
:100DE0001A781F23FB181978F8682B0000F05AF8BE
:100DF00003002370BB191B785BB2002B14D07B6CF3
:100E0000002B07D0BB6B1800FFF7C8FE03001A00C9
:100E10007B6C1A601922BB181B785BB20C3303D0B1
:100E2000BB181B785BB235E01F217B181A787B1842
:100E300001321A70FB681B7A1F22BA1812789A4284
:100E40009ED3FB68FA681A62FB68144A5A62FB6810
:100E5000134A9A62FB6820331A001E257C19BB6B6B
:100E600011001800FFF7A9FE030023707B191B78FF
:100E70005BB2002B0DD07B6C002B07D0BB6B180036
:100E8000FFF78CFE03001A007B6C1A600C235B4298
:100E900000E000231800BD4609B0F0BD6B18000843
:100EA0004D0C0008F0B58DB004AF78600C00100058
:100EB0001900FB1C221C1A70BB1C021C1A703B0080
:100EC0000A1C1A801F23FB1800221A707B68002B53
:100ED00005D07B681B7AFA1C12789A4202D3012350
:100EE0005B42A0E03B001B88002B36D0BB1C1B786C
:100EF000002B32D01E23FB1800221A7026E07B68DC
:100F00005A681E203B181B781B01D21808217B1839
:100F100070CA70C312681A60FA1C3B1812781B78EA
:100F20009A420DD07B189B68002B09D07B181B7848
:100F3000BA1C12789A4203D11F23FB18F4221A70AC
:100F40001E217B181A787B1801321A707B681B7A75
:100F50001E22BA1812789A42D1D31F23FB181B788D
:100F60005BB2002B5BD17B685A68FB1C1B781B01B2
:100F7000D318BB61BB69BA1C12781A703B001A887F
:100F800013005B019B1A9B009B18DB001A00BB69D6
:100F90009A60BB69FF225A70BB690022DA60BB69A4
:100FA0001B78002B11D0BB699B68002B0DD0BB694F
:100FB0001B789AB21C23FB18E021C9008C466244BE
:100FC0001A80BB6901229A7009E01C23FB180022D9
:100FD0001A80BB6900229A60BB6900229A707B6804
:100FE00098697B689A8BFB1C1B789BB2D31899B2CB
:100FF0007B685A68FB1C1B781B01D3181F22BC1886
:101000000B4E1C22BA1815880A4A0292019300233B
:10101000009333002A0006F05BFE030023701F23B9
:10102000FB181B785BB21800BD4609B0F0BDC04686
:10103000FF0700000F0C000880B58EB002AFF8600B
:10104000B9607A603B600123FB620123BB62BB682D
:10105000002B00D17DE0FB685B69002B00D178E0BC
:101060002723FB1800221A706BE07B683B62FB6849
:101070005A6827217B181B781B01D318BB61BB69F9
:101080009B78002B56D0BB69DB68002B22D0BB6954
:101090005B785BB2002B12D1BB699B78022B0AD123
:1010A000FB6818687B181B78564A009313001C22B3
:1010B0000121FFF78FFCBB6901229A7007E0BB6931
:1010C00002229A70BB6900225A6000233B62BB690E
:1010D0000022DA60BB699B78022B1DD1BB695A687C
:1010E0003B6AD218BB695A60BB695A68BB699B6886
:1010F0009A4211D3FB6818682723FB181B78414AD2
:10110000009313001B220121FFF764FCBB69FF223F
:101110005A70BB6903229A70BB699B78022B01D07D
:101120000023FB62BB695B785BB2052B03D0002315
:10113000BB6200E0C04627217B181A787B18013279
:101140001A70FB681B7A2722BA1812789A428CD33D
:1011500031E0BB68002B03D1FB685B69002B2AD010
:101160001F23FB1800221A701AE0FB685A681F231D
:10117000FB181B781B01D3187B617B69FF225A7017
:101180007B690022DA607B699B78002B02D07B6947
:1011900001229A701F217B181A787B1801321A706D
:1011A000FB681B7A1F22BA1812789A42DDD30023FB
:1011B000FB620023BB62FB68DB68002B14D1FB6A77
:1011C000002B11D0FB6818680023009300231B221A
:1011D0000021FFF7FFFBFB68186800230093002342
:1011E0001C220021FFF7F6FBFB68FA6ADA60FB6855
:1011F000BA6A1A61FB68BA685A61C046BD460CB04B
:1012000080BDC0463081000090B585B000AF7860E9
:1012100079680E243B19022218000EF048F83B1999
:101220001B881800BD4605B090BD80B582B000AFE8
:1012300078607B68002B02D07B681B8800E000236D
:101240001800BD4602B080BD80B582B000AF7860A6
:1012500039607B68002B01D1052303E07B683A6885
:101260009A6000231800BD4602B080BD80B586B0EC
:1012700002AFF8607A603B600B203B180A1C1A70C2
:101280007A683B181978F8683B680093022300F0ED
:1012900063FD03001800BD4604B080BD80B584B076
:1012A00000AF78600A00FB1C1A700F217B18FA1C33
:1012B0001278D2081A70FB1C1B78072213400122F7
:1012C0009A400E203B181A707B68002B0DD07B18BB
:1012D0001B78092B09D87B181B787A68D35C3A18DD
:1012E00012781340DBB2002B01D0012300E0002371
:1012F0001800BD4604B080BD80B582B000AF7860F4
:101300007B68002B07D07B68DB68002B03D07B68F1
:10131000DB681B7800E000231800BD4602B080BDEA
:1013200080B586B000AF7860396017203B183A6806
:1013300012791A703B6805333B610F23FB183A6939
:1013400012781A700E217B183A6952781A707B68ED
:10135000BB603B181B78022B0ED17B181B78002B2F
:1013600005D0BB68DB787A1812789A4204D1BB6842
:101370000F22BA1812789A70C046BD4606B080BDDA
:1013800080B586B000AFF860B9607A603B60FB68FA
:10139000002B0CD0FB685B7C002B08D1BB68002BBA
:1013A00005D07B68022B02D13B68002B01D10923B9
:1013B0001BE0FB685B687B61BB681800FFF724FFDC
:1013C00003001A0013005B019B1A9B009B18DB00B3
:1013D0001A007B699A607B690022DA603B687A6850
:1013E000B968F86800F0A0FA03001800BD4606B01E
:1013F00080BD0000F0B58BB004AFF860B9607A60D2
:101400001A00FB1C1A701723FB1800221A70FB68C5
:10141000002B0BD0BB68002B08D07B68002B05D0BD
:10142000BB6B002B02D07B6C002B02D101235B42F3
:10143000CFE0FB683022002118000DF04BFFFB6865
:1014400000221A70FB6800225A70FB68FA1C12789E
:10145000DA70FA68282308218C46BC4463441B8850
:101460009380FB687A681A622C2308229446BC4455
:1014700063441A8813005B019B1A9B009B18DB00D6
:101480001A00FB68DA6016257C191423FA18B8686C
:1014900001230021FFF7EAFE030023707B191B786C
:1014A0005BB2002B0DD03B6D002B07D0BB68180042
:1014B000FFF7BBFE03001A003B6D1A600C235B4272
:1014C00087E01423FB181B881A0013005B019B1A8A
:1014D0009B009B18DB001A00FB689A60FB68FA68A7
:1014E0001A61FB683D4A5A61FB683D4A9A61FB6894
:1014F00010331A0016257C19BB6811001800FFF77D
:10150000A3FE030023707B191B785BB2002B0DD068
:101510003B6D002B07D0BB681800FFF786FE030069
:101520001A003B6D1A600C235B4252E0FB68DA68DC
:10153000FB689B689A4203D9FB689A68FB68DA608B
:101540001726BC19274D382308229446BC4463440F
:101550001A88342308218C46BC4463441988B86B2C
:10156000214B0293FB680193002300932B0006F0AC
:10157000AFFB03002370BB191B785BB2002B03D0B9
:10158000BB191B785BB224E0FB687A6C5A62442377
:1015900008229446BC4463441A88402308218C46A0
:1015A000BC4463441988786C0023019301230093A1
:1015B000002306F0F5FB0200FB689A62FB689B6A59
:1015C000002B02D101235B4203E01723FB181B7899
:1015D0005BB21800BD4607B0F0BDC0466B180008EE
:1015E00081130008FF0700002113000880B582B0B6
:1015F00000AF786039607B68002B0DD07B683A685B
:10160000DA627B68DB6A002B06D07B68DB6A7A686B
:10161000127852B210009847C046BD4602B080BD55
:1016200090B589B000AFF860B9607A603B601F2167
:101630007B18FA6812781A701E23FB1800221A70A1
:101640007B181B785BB25A425341DBB2BB61FB682B
:10165000DB687A689A4204D2FB68DA687B68D21A3F
:1016600000E00022FB68DA60BB69002B10D1FB6848
:101670009B68002B31D0FB68DB68002B08D0FB682F
:101680005B785BB21F22BA18127852B29A4224D009
:10169000FB689B6A1F243A1912785A71FB685A6AD0
:1016A000FB689B6A1900100006F042FC3B191B788E
:1016B0005BB2002B0DD1FB689B881A0080235B0076
:1016C000134001D0052200E07F221F23FB181A706F
:1016D00003E0FB689A68FB68DA60FB681F22BA18AF
:1016E00012785A70FB689B78002B2CD0FB689B7893
:1016F000822B1FD023DC812B17D020DC802B0FD036
:101700001DDC012B02D0022B05D018E01F23FB1893
:1017100005221A7014E01F23FB1804221A700FE030
:101720001F23FB187F221A700AE01E23FB180222D7
:101730001A7005E01E23FB1801221A7000E0C04653
:10174000FB6800229A70FB689B881A0080235B016B
:10175000134019D0FB681B6A12211800FFF79EFD89
:10176000031E0FD1FB681B6A1B211800FFF796FDB3
:10177000031E07D1FB681B6A1C211800FFF78EFDB2
:10178000031E01D0012300E000237B61FB689B88DE
:101790001A0080239B0113400CD0FB681B6A1800C1
:1017A000FFF7AAFD03001A00FB689B88134001D0D5
:1017B000012300E000233B611F23FB181B785BB271
:1017C000052B13D17B69002B02D13B69002B0DD077
:1017D000FB689B881A008023DB01134001D00422A0
:1017E00000E07F221F23FB181A7013E0FB689B8820
:1017F0001BB2002B0EDA1F22BB181B785BB27F2BAB
:1018000008D17B69002B05D13B69002B02D1BB18A5
:1018100005221A70FB685B785BB21F22BA18127837
:1018200052B29A4202D1BB69002B0BD0FB68DB6A33
:10183000002B07D0FB68DB6A1F22BA18127852B25D
:1018400010009847FB681F217A1812781A70BB683D
:10185000002B03D0BB687A1812781A701E23FB186D
:101860001B781800BD4609B090BD80B588B000AFA8
:10187000F860B9607A603B60FB68002B05D0BB68FC
:10188000002B02D03B68002B01D1092348E0FB6804
:101890009B68FB61FB681B68BB61BB69002B01D1C6
:1018A0000E233DE01723FB1800221A70FB68DB684B
:1018B000002B03D1FA697B689A4224D9FB68DB6864
:1018C000FA699A4201D809232AE0FB68DB68FA69C1
:1018D000D31AFB61FB68DB68BA69D318BB61FA698C
:1018E0007B689A420CD97B68FB61FB68DA68FB690C
:1018F000D218FB68DA601723FB18FF221A7002E087
:10190000FB680022DA60FA69B969BB6818000DF05B
:10191000C5FC3B68FA691A601723FB181B785BB299
:101920001800BD4608B080BD80B588B000AFF86033
:10193000B9607A603B60FB68002B05D0BB68002B68
:1019400002D03B68002B01D109234EE0FB689B6865
:10195000FB61FB681B68BB61BB69002B01D10E23D7
:1019600043E01723FB1800221A70FB68DB68002B8A
:1019700003D1FA697B689A4224D9FB68DB68FA696B
:101980009A4201D8092330E0FB68DB68FA69D31A70
:10199000FB61FB68DB68BA69D318BB61FA697B68D5
:1019A0009A420CD97B68FB61FB68DA68FB69D21844
:1019B000FB68DA601723FB18FF221A7002E0FB684D
:1019C0000022DA60FA697B689A4201D20C230CE0AB
:1019D000FA69B968BB6918000DF060FC3B68FA69E8
:1019E0001A601723FB181B785BB21800BD4608B0BD
:1019F00080BD80B584B000AFF860B9607A603B60AC
:101A000002231800BD4604B080BD80B584B000AF8D
:101A1000F860B9607A603B6002231800BD4604B0EC
:101A200080BD80B586B000AF78600A00BB1C1A800C
:101A30007B68002B03D07B681B88002B01D100231F
:101A400066E01623FB1800221A807B681A8814238C
:101A5000FB18013A1A803AE01623FB181A8814235F
:101A6000FB181B88D3185A100E203B181A807B686D
:101A700059683B181A8813005B009B189B00CB1811
:101A8000BB60BB681B88BA1C12889A4201D1BB6834
:101A90003EE0BB681B88BA1C12889A4210D20E2204
:101AA000BB181B88002B04D0BB181B88013B9BB2C2
:101AB00002E00E23FB181B881422BA18138006E0DC
:101AC0001623FB180E22BA18128801321A8016202B
:101AD0003A1814217B1812881B889A42BCD33A18F2
:101AE0007B1812881B889A4211D17B6859683B1871
:101AF0001A8813005B009B189B00CB183B613B6965
:101B00001B88BA1C12889A4201D13B6900E000236D
:101B10001800BD4606B080BD80B58CB000AFF8603F
:101B20007A603B600B23FB180A1C1A70FB68002BC1
:101B300003D0FB685B68002B01D10523E1E07B68E3
:101B4000002B01D10923DCE07B687B62FB68DB783A
:101B50001A000F231340032B56D000DD98E0012B11
:101B600002D0022B17D093E00B23FB181B78002B1D
:101B700001D00E23C5E0FB685B687B617B691A7945
:101B80007B6A1A747B691A687B6A1A607B699A6837
:101B90007B6A9A607EE0FB689B780B22BA18127809
:101BA0009A4201D30E23ACE0FB685B68FB610B2318
:101BB000FB181B78002B0BD1FB691A7A7B6A1A740D
:101BC000FB691A687B6A1A607B6A01229A6061E08D
:101BD000FB695A7A7B6A1A74FB695B68BB61BB69F3
:101BE000002B09D0FB691B690B22BA181278013A45
:101BF0005343BA69D21800E0BA697B6A1A60FB697C
:101C0000DA687B6A9A6045E0FB685B683B620023A8
:101C1000FB622B23FB1800221A7020E02B217B187B
:101C20001A7813005B009B189B001A003B6A9B18F4
:101C30001B790B22BA1812789A420AD17B181A78AB
:101C400013005B009B189B001A003B6A9B18FB6209
:101C50000CE02B217B181A787B1801321A70FB6874
:101C60009B782B22BA1812789A42D7D3FB6A002BA2
:101C700001D10E2345E0FB6A5A797B6A1A74FB6A2C
:101C80001A687B6A1A60FB6A9A687B6A9A6001E04C
:101C9000092336E0FB689B68002B02D03B68002BD1
:101CA00009D07B68194A5A617B68194A9A617B6A34
:101CB00000225A601CE0FB689B685B68002B03D025
:101CC000FB689B685A6800E0124A7B685A61FB68AF
:101CD0009B689B68002B03D0FB689B689A6800E0B8
:101CE0000D4A7B689A61FB689B681A687B6A5A6038
:101CF0007B6A0022DA607B6A0B22BA1812785A7467
:101D000000231800BD460CB080BDC0466B1800080B
:101D100029190008F31900080B1A000880B582B0D1
:101D200000AF0200FB1D1A70FB1D1B787F2B04D82F
:101D3000FB1D1B785BB2192B02DD064B5B6A05E0CD
:101D4000FB1D00229A56034B9200D3581800BD4643
:101D500002B080BDE4010108F0B58FB000AFF860BB
:101D60007A603B600B23FB180A1C1A707B68002BFF
:101D700001D109232BE01422BB187B6300233B61B4
:101D80003326BC193D6DBA180B23FB181978F86877
:101D90002B00FFF7C1FE03002370BB191B785BB259
:101DA000002B03D0BB191B785BB210E07B6B9B68E8
:101DB0003A689A4201D00B2309E01423FB185C69AE
:101DC0001023FB183A687968786BA0470300180065
:101DD000BD460FB0F0BDF0B58FB000AFF8607A60CF
:101DE0003B600B203B180A1C1A701422BB187B6343
:101DF00000233B613326BC193D6DBA183B18197896
:101E0000F8682B00FFF788FE03002370BB191B78CE
:101E10005BB2002B03D0BB191B785BB210E07B6B6D
:101E20009B683A689A4201D00B2309E01423FB18FF
:101E30009C691023FB183A687968786BA047030007
:101E40001800BD460FB0F0BDB0B58EB000AFF86061
:101E50007A603B600B203B180A1C1A701422BB18D6
:101E60003B6337257C19BA183B181978F8680123A9
:101E7000FFF752FE030023707B191B785BB2002B27
:101E800018D13B6B1B68002B03D03B6B9B68002B6E
:101E900004D13723FB1809221A700BE07B68002B52
:101EA00008D03B6B9B687A689A4203D03723FB18B3
:101EB0000B221A703B68002B04D03B683722BA18FB
:101EC00012781A703723FB181B785BB2002B02D1F3
:101ED0003B6B1B6800E000231800BD460EB0B0BD90
:101EE00080B584B000AF78607B681A780F217B18CA
:101EF0001A707B181B781800BD4604B080BD90B5E1
:101F000085B000AF786079680E243B190222180072
:101F10000DF0CDF93B191B881800BD4605B090BDEA
:101F200080B584B000AF786079680C23FB18042278
:101F300018000DF0BCF9FB681800BD4604B080BD68
:101F400080B582B000AF7860396039007B680422C8
:101F500018000DF0ACF904231800BD4602B080BD96
:101F600080B582B000AF78607B68002B02D07B68C0
:101F70001B8800E000231800BD4602B080BD80B57C
:101F800082B000AF786039607B68002B01D10523F7
:101F900003E07B683A689A6000231800BD4602B0EF
:101FA00080BD80B586B002AFF8607A603B600B20E0
:101FB0003B180A1C1A707A683B181978F8683B6855
:101FC00000930123FFF7C8FE03001800BD4604B0CC
:101FD00080BD80B586B002AFF8607A603B600B20B0
:101FE0003B180A1C1A707A683B181978F8683B6825
:101FF00000930223FFF7B0FE03001800BD4604B0B3
:1020000080BD80B586B002AFF8607A603B600B207F
:102010003B180A1C1A707A683B181978F8683B68F4
:1020200000930423FFF798FE03001800BD4604B098
:1020300080BD80B584B000AFF860B9607A603B6065
:102040003B68002B02D03B687A681A6000231800B6
:10205000BD4604B080BD80B584B000AFF860B96003
:102060007A603B60BB68002B05D0FB68002B02D078
:102070003B68002B01D1092311E0FB689B687A685B
:102080009A4202D9FB689B687B607A68BB68002132
:1020900018000DF01FF93B687A681A6000231800D9
:1020A000BD4604B080BD0000B0B592B000AFF8608E
:1020B000B9603B60FB1D1A70BB681A0C4623FB1805
:1020C0001A80BB681A0A4523FB181A7044217B1832
:1020D000BA681A7043203B187A181278D2081A701E
:1020E000FB1D1A781300DB009B1A9B001033FA6863
:1020F000D318FB633B181B78082B01D90723A8E0F2
:102100004623FB181B881F2B1DD84523FB181B7863
:10211000002B18D1FB6BBB63BB6B14220021180092
:102120000DF0D8F84323FB181A78BB6BDA60BB6B51
:10213000DA68BB6B9A60FB6B484A5A61FB6B484A92
:102140009A61002385E04623FB181A88BB6D1100B5
:102150001800FFF766FC03007B6333257C1914230A
:10216000FA184523FB181978786B0023FFF7D4FC85
:10217000030023707B191B785BB2002B03D07B1903
:102180001B785BB265E03B68002B01D0082200E0C1
:10219000042232217B181A7014203B181B7C7A18F9
:1021A00012781340DBB2002B0CD04423FB181B78B1
:1021B0000722134006D13B189A684323FB181B786B
:1021C0009A4201D2062344E0FB6B1422BA1813CAC8
:1021D00013C313CA13C312681A604323FB181A7877
:1021E000FB6BDA603B68002B32D145243B191B782E
:1021F0001F2B26D87B6B9B68002B22D07B6B9968AA
:102200003B191B78DB08DBB21800FB1D1A780300B2
:102210000833CB18191DFB683C329200D1503B1992
:102220001B780722134001229A401100FB1D1A78E7
:10223000C8B2F96888235B008A18D318021C1A7088
:1022400006E0FB1D1A78FB683C3292000021D15059
:1022500000231800BD4612B0B0BDC046572000088C
:1022600033200008F0B58DB002AFF860B9607A6035
:102270003B6000237B621B217B1800221A70222501
:102280007C197A18786801230021FFF78AFE030081
:1022900023707B191B785BB2002B0DD03B6C002B9D
:1022A00007D07B681800FFF75BFE03001A023B6C47
:1022B0001A600C235B4295E02323FB1800221A705E
:1022C0006BE023257B191A781300DB009B1A9B0017
:1022D0001033FA68D318FB6100237B617B191B78EC
:1022E0000133D9B22226BC191423FA1878680123C5
:1022F000FFF787FE03002370BB191B785BB20E2B20
:1023000044D0BB191B785BB2002B10D03B6C002B68
:102310000AD07B681800FFF723FE03001A027B191E
:102320001B781A433B6C1A600C235B425AE07969B4
:102330002226BC193D682323FB181A78F868BB686D
:1023400000932B00FFF7B0FE03002370BB191B782E
:102350005BB2002B0CD0FB6900229A60FB69FF2264
:10236000DA607B6C1B68002B02D17A697B6C1A6087
:102370001B23FB181B782322BA1812789A4206D224
:10238000FB69DB687A6AD3187B6200E0C0462321D0
:102390007B181A787B1801321A702323FB181B78DC
:1023A000072B8ED97B6A082B07D87B6A002B0BD1B1
:1023B0001B23FB181B78002B06D07B6C1B68002BA3
:1023C00002D17B6C01221A607B6C1B68002B08D148
:1023D0007B6ADAB2FB681A731B23FB181A78FB6856
:1023E0005A7300231800BD460BB0F0BDF0B58FB096
:1023F00002AFF860B9607A603B60FB68002B09D0DF
:10240000BB68002B06D03B68002B03D0FB685B7CCD
:10241000082B01D9092398E0FB685B687B627B6A23
:102420009B68002B07D17B6A5B7B002B05D0FB6888
:102430005B7C002B01D0022387E0FB685B7C002BD8
:1024400056D122257C19BB681800FFF749FD03000F
:1024500023700023FB627B191B78082B01D907230B
:1024600073E02B23FB1800221A7020E02B23FB18AB
:102470001A781300DB009B1A9B0010337A6AD3187A
:10248000FB61FB699B68BB61FB69DB687B617A6907
:10249000BB699A4201D9062357E0FA6A7B69D318CF
:1024A000FB622B217B181A787B1801321A702B23C0
:1024B000FA182223FB1812781B789A42D6D3FB6AAB
:1024C000082B01D9072340E0FB6A002B06D1222309
:1024D000FB181B78002B01D00F2336E0FB6ADAB221
:1024E0007B6A1A737B6A2222BA1812785A7325E023
:1024F000BB681800FFF714FD0600FB685B7C013B1E
:10250000D9B27A6A8C235B00D5587A6A8E235B0035
:10251000D3582322BC18786A00932B000A0031009C
:10252000FFF7C2FD030023702322BB181B785BB2A8
:10253000002B03D0BB181B785BB206E03B687A68BF
:10254000B968F868FFF7F0F903001800BD460DB050
:10255000F0BD0000B0B588B000AFF860B9607A6037
:102560003B601B257C193B687A68B968F868FFF7FF
:102570007CF9030023707B191B785BB2002B3ED1E2
:10258000FB685B7C012B3AD13B681B68042B36D17E
:10259000FB685B687B61BB681800FFF7C1FC030048
:1025A000FB61FB699AB212217B185205520D1A8009
:1025B0007B181B88002B13D07B181A88796991230C
:1025C0005B00CB5A1900124B0B409A4208D1FB69B1
:1025D0001B0C1B047969912252008A5A1343FB6138
:1025E0007B699B68002B04D1FB6980221206134390
:1025F000FB61FA69BB6811001800FFF7A1FC1B23FF
:10260000FB181B785BB21800BD4608B0B0BDC046D1
:1026100080FF000090B589B000AF786039607B68BA
:10262000BB61BB697B6113203B183A6812791A7051
:102630003B680533FB601F243B19B969B022520087
:102640008A5C1A707B699B68002B51D07B691B7B6D
:102650003A1812789A4243D37B691B7B3A18127856
:102660009A4207D13B191B78012B0BD13B190B2246
:102670001A7007E01F22BB181B78002B02D1BB1871
:102680000D221A701E217B1800221A70BA69B42319
:102690005B00D358002B0FD0BA69B2235B00D3582C
:1026A000002B09D0BA69B2235B00D358DB68002B3A
:1026B00002D07B1801221A701E243B191B782A3382
:1026C000DB00BA69D318F968082218000CF0E6FD9F
:1026D0003B191A78BB69523292000121D15007E0B0
:1026E0001F22BB181B78002B02D1BB180C221A70BA
:1026F000BA691F23F918B0235B000978D154C0468A
:10270000BD4609B090BD0000F0B593B004AFF860CD
:10271000B9607A603B60FB68002B08D0BB68002B77
:1027200005D03B68002B02D07B68042B01D909231C
:102730003FE1FB685B683B633B6BFB627A68B968AF
:102740001023FB1818000CF0A9FDFB685B7C052B1F
:1027500000D10DE100DD24E1012B03D0022B00D1DB
:10276000D9E01EE1BB681800FFF7DAFB0300FB614C
:10277000FB699AB236217B185205520D1A80FB690B
:10278000DB43DB0FDBB2BB61FB698C4A134000D03B
:1027900057E0BB69002B0BD0FB6A9B68002B07D06E
:1027A000FA6A92235B00D35A7A1812889A4248D167
:1027B000BB69002B3ED036217B181B887F2B40D96C
:1027C0007B181A8880235B009A4205D97B181A88E7
:1027D000C0235B009A4234D936217B181A88B02373
:1027E000DB009A4205D97B181A88C023DB009A4285
:1027F00027D336217B181A88C023DB009A4205D9DB
:102800007B181A88D023DB009A421AD336217B1812
:102810001A88DC23DB009A4205D37B181A88E02350
:10282000DB009A420DD33623FB181A88E023DB0025
:102830009A4206D8BB69002B05D0FB6A5B7B002B54
:1028400001D10F23B5E0FB6A9B68BA699A4209D1AE
:10285000FA6A92235B00D35A3622BA1812889A4237
:1028600000D19DE0FA6A91235B00D35A3622BA1850
:1028700012889A4209D1FB697F2293431A001023E0
:10288000FB1811001800FFF75BFBBB69002B03D19D
:102890003623FB1800221A80FB6A5868FA6A9023D4
:1028A0005B00D15A1726BC19454D3623FB181A88F0
:1028B000444B02933B6B0193002300932B0005F0E4
:1028C00007FA03002370BB69002B0FD0BB191B78DC
:1028D0005BB2002B0AD1FB6A01229A60FA6A3623A6
:1028E000F91892235B000988D15259E0FB6A002253
:1028F0009A603A6BA4235B000021D1503A6BA62367
:102900005B000021D1501723FB181B785BB2002B12
:1029100046D009234DE027257C19BB681800FFF736
:10292000DFFA030023707B191B78F02B05D97B1984
:102930001B78FD2B01D80F233BE02723FB181A78C7
:10294000F021002391425B41DBB23B623A6BB4233E
:102950005B00D3583A6A9A4204D03A6BA6235B00D4
:102960000021D1503A6BB4235B00396AD15018E092
:10297000BB681800FFF7C3FA0300BB62BA6A130012
:102980005B019B1A9B009B18DB0019003A6BB62376
:102990005B00D1503A6BB8235B000021D15000E0BE
:1029A000C0463B687A6810217918F868FEF7BCFFCA
:1029B00003001800BD460FB0F0BDC04600F8FF3F51
:1029C000FF07000015260008F0B591B004AFF860CD
:1029D000B9607A603B60FB687B62FB68002B0ED0BD
:1029E000BB68002B0BD07B68002B08D0FB6C002B46
:1029F00005D03B6D002B02D07B6D002B02D1012353
:102A00005B425FE1BA235A00FB68002118000CF01A
:102A100061FC7B6A7A681A607B6A7A6D5A6000236F
:102A2000FB6123257C193A6DB968786A1C23FB1871
:102A30000193FB6D00930123FFF714FC0300237047
:102A40007B191B785BB2002B03D07B191B785BB220
:102A500038E10023BB6122257C191823FA18F86C91
:102A600001230121FFF7CDFA030023707B191B78A6
:102A70005BB2002B0FD0FB6D002B09D0FB6C180054
:102A8000FFF76EFA03001B0201221A43FB6D1A6066
:102A90000C235B4216E1BB69DB43DB0FDBB2FB625D
:102AA000BB699AB22A217B185205520D1A80FB6A23
:102AB000002B0ED07B6A5B7B002B03D07B181B881E
:102AC000002B06D10023FB62FB69002B01D10123FF
:102AD000FB61FB69002B0FD07B6A1868FB69012B37
:102AE00001D0FB6900E0BB6982221202009313004F
:102AF0001A220121FDF76EFFFB6A002B03D12A2366
:102B0000FB1800221A802A203B181B88002B0FD0AC
:102B10003B181A88402408257B191B191B886B4910
:102B20000B409A4204D13A187B191B191B88138059
:102B30002326BC19664D2A23FB181A885023082126
:102B40008C46BC4463441988786D624B0293FB68E1
:102B50000193002300932B0005F0BAF803002370C3
:102B6000BB191B785BB2002B03D0BB191B785BB27F
:102B7000A8E07B6AFA6A9A6017217B18FE221A7015
:102B800022257C197A18F86C01230221FFF709FA33
:102B9000030023707B191B785BB2002B0FD0FB6DF9
:102BA000002B09D0FB6C1800FFF7DAF903001B02B9
:102BB00002221A43FB6D1A600C235B4282E0FA6822
:102BC000B2235B003968D1501723FB181A78F02123
:102BD000002391425B41DBB21900FA68B4235B0029
:102BE000D15014257B1900221A802223FC187A194F
:102BF000F86C01230521FFF7ECF9030023707B1922
:102C00001B881A0013005B019B1A9B009B18DB00BA
:102C10001900FA68B6235B00D1507A6A8C235B00F6
:102C20000121D1507A6A8E235B00B968D1507A6A4B
:102C3000502308217918C91890235B000988D152C4
:102C4000796A402308229446BC446344912252008E
:102C50001B888B527A6A2A23F91892235B00098811
:102C6000D1527A6A94235B00F968D1507A6A96232C
:102C70005B001949D1507A6A98235B001749D150FB
:102C80007A6A9C235B00F968D1507A6A9E235B00C4
:102C90001349D1507A6AA0235B001249D1507B6A54
:102CA0002933FF331A00FB6C11001800FFF767F996
:102CB0007B6A3933FF331A003B6D11001800FFF7B0
:102CC0005EF900231800BD460DB0F0BD80FF000086
:102CD000FF070000152600085525000809270008F1
:102CE0006B180008ED230008B0B596B002AFF8608D
:102CF000B9607A603B60FB687B637B6B9B68002BF1
:102D000000D126E13B68002B00D122E13B6E002B75
:102D100006D1FA68B4235B00D358002B00D018E129
:102D2000FA68B0235B00D35C0A2B29D9FA68B02378
:102D30005B00D35C0B3B5A1E9341DBB23B63FA68EA
:102D4000B0235B00D35C0C2B01D1904A00E0904A89
:102D50002E217B181A807B6B18687B6B1B7B1A00FB
:102D60007B181B88396B00920422FDF733FE3B6B06
:102D70005A1E9341DBB21900FA68B0235B00D154AC
:102D80004F217B1800221A70FA68B4235B00D358D5
:102D9000002B0FD0FA68B2235B00D358002B09D068
:102DA000FA68B2235B00D358DB68002B02D17B1892
:102DB00001221A700023BB646BE00123BB644F2126
:102DC0007B181B782A33DB00FA68D3187B647B18E6
:102DD0001A78FB68523292000021D1504323FB182D
:102DE00000221A704EE04323FB181A781300DB0010
:102DF0009B1A9B0010337A6BD318BB62BB6A0C33EF
:102E00007B627B6A1A682323FB181A70BB6A9B6873
:102E1000FB63FB6B082B01D90823FB6323257B197C
:102E20001B78FA6B9A4210D918243B19082200210A
:102E300018000CF04FFA7B191A78796C3B191800BE
:102E40000CF02CFA3B19BB6301E07B6CBB637B6A23
:102E500000221A60BB6A9C69B86A1423FB18FA6BDB
:102E6000B96BA04723217B181A787B6A1A607B18FC
:102E70001B787A6CD3187B6443217B181A787B18F3
:102E800001321A707B6B5B7B4322BA1812789A422C
:102E9000A9D34F23FB181A78FB6852329200D358FB
:102EA000002B8AD1FA68B6235B00D358002B67D079
:102EB000BB6C002B1BD0FA68B8235B00D258F968B2
:102EC000B6235B00CB589A420BD97B6B1868FA6823
:102ED000B8235B00D3580093002317220021FDF78D
:102EE00079FDFA68B8235B000121D15048E0FA6807
:102EF000B8235B00D358002B42D0FA68B8235B009C
:102F0000D258F968B6235B00CB589A4238D2FA6897
:102F1000B8235B00D258BB68D118FA68B8235B00AD
:102F2000D150FA68B8235B00D258F968B6235B0029
:102F3000CB589A4224D97B6B1868FA68B8235B0097
:102F4000D358144A0093130017220121FDF742FDC4
:102F500016E07B6B9B68002B02D03B68002B10D1E6
:102F6000FA68A4235B000021D150FA68A6235B0015
:102F70000021D150FA68B8235B000021D15000E055
:102F8000C046C046BD4614B0B0BDC0461082000069
:102F90002082000050820000B0B592B002AFF8600D
:102FA000B9607A603B60FB68002B08D0BB68002BDF
:102FB00005D03B68002B02D07B68042B01D9092384
:102FC00075E1FB685B68BB63BB6B7B637A68B96860
:102FD0001423FB1818000CF061F9FB685B7C062BCE
:102FE00000D95CE19A00B44BD3181B689F46BB68BC
:102FF0001800FEF795FF03003B623B6A9AB23E2140
:103000007B185205520D1A803B6ADB43DB0FDBB2A3
:10301000FB613B6AA94A134000D057E0FB69002BD3
:103020000BD07B6B9B68002B07D07A6B92235B00E5
:10303000D35A7A1812889A4248D1FB69002B3ED0A5
:103040003E217B181B887F2B40D97B181A88802350
:103050005B009A4205D97B181A88C0235B009A420C
:1030600034D93E217B181A88B023DB009A4205D957
:103070007B181A88C023DB009A4227D33E217B1895
:103080001A88C023DB009A4205D97B181A88D023FE
:10309000DB009A421AD33E217B181A88DC23DB001E
:1030A0009A4205D37B181A88E023DB009A420DD39D
:1030B0003E23FB181A88E023DB009A4206D8FB69FE
:1030C000002B05D07B6B5B7B002B01D10F23EEE047
:1030D0007B6B9B68FA699A4209D17A6B92235B00F9
:1030E000D35A3E22BA1812889A4200D1D6E07A6B9F
:1030F00091235B00D35A3E22BA1812889A4209D112
:103100003B6A7F2293431A001423FB181100180016
:10311000FEF716FFFB69002B03D13E23FB180022AC
:103120001A807B6B58687A6B90235B00D45A7B6B58
:103130001A7BB96BA6235B00C95CF02500238D4286
:103140005B41DBB21D003E23FB18198801950092FC
:1031500000230A00210004F023FE0300BB61BB69C9
:10316000002B01D10923A2E0BA6BA4235B00B9694B
:10317000D1507B6BFA699A607A6B3E23F9189223DF
:103180005B000988D15289E027257C19BB681800AB
:10319000FEF7A6FE030023707B191B78F02B05D9E0
:1031A0007B191B78FD2B01D80F2380E027203B18CB
:1031B0001A78F021002391425B41D9B2BA6BA42363
:1031C0005B00D3580A005A61BA6B5A23FF33FF21C0
:1031D000D154BA6B3918A6235B000978D154BA6B65
:1031E000A8235B000121D150BA6BB4235B000021FE
:1031F000D150BA6BB4235B00D158BA6BB2235B00D9
:10320000D1504CE07B6B9B68002B01D00F234EE02C
:10321000BB681800FEF773FE0300BB62BB6A642242
:103220005A431100BA6BAE235B00D150BA6BB22384
:103230005B000021D15032E0BB681800FEF75FFE52
:103240000300FB62FA6A13005B019B1A9B009B1848
:10325000DB001900BA6BB0235B00D150BA6BB4230A
:103260005B000021D1501AE033257C19BB6818009F
:10327000FEF736FE030023707B6B9B68002B03D1A7
:103280007B191B78F02B01D90F2310E0BA6B332385
:10329000F918AC235B000978D15400E0C0463B68C4
:1032A0007A6814217918F868FEF73EFB03001800CD
:1032B000BD4610B0B0BDC0464C02010800F8FF3F4B
:1032C000F0B58FB002AFF860B9607A603B60FB6820
:1032D0007B62FB68002B0ED0BB68002B0BD07B6899
:1032E000002B08D0FB6C002B05D03B6D002B02D0CF
:1032F0007B6D002B02D101235B42A2E1B6235A0071
:10330000FB68002118000BF0E5FF7B6A7A681A6001
:103310007B6A7A6D5A600023FB6123257C193A6D24
:10332000B968786A1C23FB180193FB6D0093002396
:10333000FEF798FF030023707B191B785BB2002B0C
:1033400003D07B191B785BB27BE11B217B18FE222B
:103350001A7022257C197A18F86C01230221FEF7D5
:1033600020FE030023707B191B785BB2002B0FD06B
:10337000FB6D002B09D0FB6C1800FEF7F1FD03007C
:103380001B0202221A43FB6D1A600C235B4258E1B8
:103390001B22BB181B78FD2B06D8BB181B78F02B03
:1033A00002D9BB18FE221A701B23FB181978FA6881
:1033B000A6235B00D154FA68A8235B000121D150F9
:1033C00000237B6122257C191423FA18F86C012351
:1033D0000121FEF716FE030023707B191B785BB2F8
:1033E000002B0FD0FB6D002B09D0FB6C1800FEF7F3
:1033F000B7FD03001B0201221A43FB6D1A600C2368
:103400005B421EE17B69DB43DB0FDBB2FB627B6966
:103410009AB22A217B185205520D1A80FB6A002BA2
:103420000ED07B6A5B7B002B03D07B181B88002BA4
:1034300006D10023FB62FB69002B01D10123FB6154
:10344000FB69002B0FD07B6A1868FB69012B01D048
:10345000FB6900E07B6982221202009313001A22AA
:103460000121FDF7B7FAFB6A002B03D12A23FB18D1
:1034700000221A802A203B181B88002B0FD03B18F3
:103480001A88402408257B191B191B886F490B409B
:103490009A4204D13A187B191B191B8813807B6A46
:1034A0001A7BF968A6235B00C95CF02000238842E0
:1034B0005B41DBB21D002A23FB181C885023082126
:1034C0008C46BC4463441988786D019500920023B2
:1034D000220004F065FC0100FA68A4235B00D150CF
:1034E000FA68A4235B00D358002B02D101235B426E
:1034F000A7E07B6AFA6A9A6012257B1900221A807B
:103500001026BB1900221A802223FC187A19F86CA5
:1035100001230321FEF75DFD030023702223FC1825
:10352000BA19F86C01230521FEF753FD030023703F
:103530007B191B881A00642353431900FA68AE23D1
:103540005B00D150BB191B881A0013005B019B1A4A
:103550009B009B18DB001900FA68B0235B00D15078
:10356000FA68AC235B000021D154FB681A00593281
:10357000FF322223FC18F86C01230621FEF711FD0F
:1035800003002370FA68AA235B003968D150FA68F7
:103590005A23FF33FF21D1547A6A8C235B00002128
:1035A000D1507A6A8E235B00B968D1507A6A502371
:1035B00008217918C91890235B000988D152796ACB
:1035C000402308229446BC446344912252001B8845
:1035D0008B527A6A2A23F91892235B000988D15208
:1035E0007A6A94235B00F968D1507A6A96235B006B
:1035F0001749D1507A6A98235B001649D1507A6AEC
:103600009C235B00F968D1507A6A9E235B001249C3
:10361000D1507A6AA0235B001049D1507B6A2933CC
:10362000FF331A00FB6C11001800FEF7A8FC7B6A40
:103630003933FF331A003B6D11001800FEF79FFC71
:1036400000231800BD460DB0F0BDC04680FF00004D
:1036500055250008992F00086B180008ED23000875
:1036600090B591B000AF78607B68FB627A68A42364
:103670005B00D3580533FB637A68A6235B00D35CF9
:10368000002B05D07A68A6235B00D35CFD2B01D903
:10369000012300E00023BB623B23FB1800221A70C9
:1036A00070E03B23FB181A781300DB009B1A9B0089
:1036B0001033FA6AD3187B627B6A3B623B6ADA6832
:1036C0001F23FB181A703B6A9B687B637B6B082B7C
:1036D00001D908237B631F23FB181B787A6B9A425E
:1036E00009D910243B190822002118000BF0F2FD23
:1036F0003B193B6301E0FB6B3B633B6A0022DA60F2
:103700007B6A5C690C23FB187A6B396B386AA047BB
:103710001F217B181A783B6ADA607B181B787A6B5A
:103720009A4207D97B181A781023F918FB6B1800F6
:103730000BF0B4FD3B217B181A78FB6A3C329200F7
:10374000D358BB61BB69002B10D0BB6A002B0DD0D6
:10375000BB691A787B181978F86A88235B004118CE
:10376000CB181B781343DAB2BB691A701F23FB18FE
:103770001B78FA6BD318FB633B217B181A787B18F4
:1037800001321A70FB6A5B7B3B22BA1812789A42AC
:1037900087D37A68A8235B000021D1507A68B023D0
:1037A0005B00D1587A68B4235B00D1507A68AE23AD
:1037B0005B00D1587A68B2235B00D150FB6A58682D
:1037C0007A68A4235B00D358190004F0B1FB03000E
:1037D0001800BD4611B090BD80B588B000AFF8604C
:1037E000B9607A603B60FB68BB61BB699B68002B7A
:1037F00000D113E13B68002B00D10FE1FA68A6234A
:103800005B00D35C002B05D0FA68A6235B00D35C79
:10381000FD2B5AD9FA68B0235B00D358002B1DD07A
:10382000FA68B4235B00D358BA689A4206D2FA68A1
:10383000B4235B00D258BB68D31A00E00023F968B8
:10384000B42252008B50FA68B4235B00D358002B8B
:1038500004D1FA68A8235B000121D150FA68A8239B
:103860005B00D358002B30D11F23FB1800221A70A5
:1038700024E01F217B181A78BB693C329200D35890
:103880007B617B69002B13D07B691B787A181178D8
:10389000B8698822520041188A1812781340DBB2A6
:1038A000002B05D1FA68A8235B000121D1500CE060
:1038B0001F217B181A787B1801321A70BB695B7B59
:1038C0001F22BA1812789A42D3D3FA68A6235B0053
:1038D000D35CFD2B25D9FA68B2235B00D358BA68B4
:1038E0009A4206D2FA68B2235B00D258BB68D31A58
:1038F00000E00023F968B22252008B50FA68A82336
:103900005B00D358002B00D1A0E0FA68B2235B0023
:10391000D358002B00D099E0FB681800FFF7A0FEF9
:1039200094E0FA68AA235B00D358002B00D18DE005
:10393000BB6A002B00D189E0FA68A6235B00D35C48
:10394000002B0BD1FA68A8235B00D358002B00D1C1
:103950007CE0FB681800FFF783FE77E0FA685A23E3
:10396000FF33D35CFF2B1ED1FA68AA235B00D35828
:103970005B7C002B0BD0FA68AC235B00D35C002B84
:1039800005D0FA685A23FF33FE21D1540BE0FA68C0
:10399000A6235B00D35C5B08DBB20133D9B2FA68C3
:1039A0005A23FF33D154FA685A23FF33D35CFE2BDA
:1039B00017D1FA68AA235B00D3589A7CF968AC2324
:1039C0005B00CB5C9A4241D1FA68A6235B00D15CD4
:1039D000FA685A23FF33D154FB681800FFF740FE02
:1039E00034E0FA685A23FF33D35C013BD9B2FA685A
:1039F0005A23FF33D154FA685A23FF33D35C002B88
:103A000024D1FA68A6235B00D15CFA685A23FF33FD
:103A1000D154FB681800FFF723FE17E0FA68A823CB
:103A20005B000121D150FA68B4235B000021D15022
:103A3000FA68B4235B00D158FA68B2235B00D15016
:103A4000FA685A23FF33FF21D15400E0C046C04634
:103A5000BD4608B080BD80B584B000AF78607B689B
:103A60001A780F217B181A707B181B781800BD4636
:103A700004B080BD80B584B000AF786079680C2355
:103A8000FB18042218000BF012FCFB681800BD465E
:103A900004B080BD80B582B000AF78607B68002B39
:103AA00002D07B681B8800E000231800BD4602B0EE
:103AB00080BD80B582B000AF78607B68002B07D0F6
:103AC0007B681B7C1A003C23134001D0012300E0DB
:103AD00000231800BD4602B080BD80B582B000AFA3
:103AE000786039607B68002B01D1052303E07B6897
:103AF0003A689A6000231800BD4602B080BD80B5C8
:103B000086B002AFF8607A603B600B203B180A1C5D
:103B10001A707A683B181978F8683B68009301239B
:103B2000FEF71AF903001800BD4604B080BD80B549
:103B300086B002AFF8607A603B600B203B180A1C2D
:103B40001A707A683B181978F8683B680093042368
:103B5000FEF702F903001800BD4604B080BD80B531
:103B600086B002AFF8607A603B600B203B180A1CFD
:103B70001A703A1D3B181978F8683B6800930423C3
:103B8000FEF729F903001800BD4604B080BD80B5DA
:103B900086B000AF786039607B687B6113217B1849
:103BA0003A6812791A703B680533FB607B181B7802
:103BB000082B18D1FB681B78802B03D17B6900226E
:103BC0001A7510E07B699B6B002B0CD17B693C3331
:103BD00018001323FB181A78FB6819000BF05EFB22
:103BE0007B6901229A63C046BD4606B080BD0000D5
:103BF000F0B58BB004AFF860B9601900BB1D1A8036
:103C00003B1D0A1C1A80FB68DB6C3A6B9A4206D19A
:103C1000FB681B6D7A6B9A4201D1002364E0FB685C
:103C20003A6BDA64FB687A6B1A653B6B002B02DB3C
:103C30003B6B9AB200E000221623FB181A807B6BC4
:103C4000002B02DB7B6B9AB200E0002214217B1870
:103C50001A801623FB181B88002B07D07B181B88A3
:103C6000002B03D0FB6801221A610AE01623FB181F
:103C700000221A801423FB1800221A80FB680022FD
:103C80001A611326BC191A4D1623FB181A88BB1D7E
:103C90001988B868174B0293FB68019300230093BF
:103CA0002B0004F015F803002370FB681868142338
:103CB000FB181A883B1D19880023019308230093E1
:103CC000002304F06DF80200FB685A60FB685B6833
:103CD000002B05D1BB19FF221A70FB6800221A6164
:103CE0001323FB181B785BB21800BD4607B0F0BD6C
:103CF000FF0700008F3B0008B0B58EB002AFF86040
:103D0000B9607A603B60FB68002B05D0BB68002B74
:103D100002D03B68002B01D109233AE1FB685B68C4
:103D2000FB62FB685B7C032B00D110E100DD26E128
:103D3000022B00D189E000DD21E1002B02D0012B14
:103D400002D01CE1042324E1BB681800FFF792FEB7
:103D50000300BB61BB699AB216217B185205520D54
:103D60001A80FB6ADB6C9AB214203B185205520D84
:103D70001A80BB69DB43DB0FDBB23B61BB69874A5F
:103D800013404ED13B69002B09D0FB6A1B69002B05
:103D900005D07A183B1812881B889A4241D13B699A
:103DA000002B40D016217B181B887F2B39D97B181C
:103DB0001A8880235B009A4205D97B181A88C02391
:103DC0005B009A422DD916217B181A88B023DB009C
:103DD0009A4205D97B181A88C023DB009A4220D367
:103DE00016217B181A88C023DB009A4205D97B185C
:103DF0001A88D023DB009A4213D316217B181A8825
:103E0000DC23DB009A4205D37B181A88E023DB0011
:103E10009A4206D31623FB181A88E023DB009A4245
:103E200001D90F23B5E0FB6A596CFB6A48229A5A04
:103E3000FB6A4A201C5AFB6A1B6DF86A0193BB6936
:103E400000932300FFF7D4FE9CE0BB681800FFF747
:103E500011FE03007B627B6A9AB222217B18520515
:103E6000520D1A80FB6A1B6D9AB220203B18520536
:103E7000520D1A807B6ADB43DB0FDBB2FB617B6A8E
:103E8000464A13404ED1FB69002B09D0FB6A1B69DF
:103E9000002B05D07A183B1812881B889A4241D112
:103EA000FB69002B40D022217B181B887F2B39D93E
:103EB0007B181A8880235B009A4205D97B181A88E0
:103EC000C0235B009A422DD922217B181A88B02387
:103ED000DB009A4205D97B181A88C023DB009A427E
:103EE00020D322217B181A88C023DB009A4205D9EF
:103EF0007B181A88D023DB009A4213D322217B1827
:103F00001A88DC23DB009A4205D37B181A88E02349
:103F1000DB009A4206D32223FB181A88E023DB0039
:103F20009A4201D90F2334E0FB6A596CFB6A48229C
:103F30009C5AFB6A4A229D5AFB6ADB6CF86A7A6AD1
:103F4000019200932B002200FFF752FE1AE07B68DB
:103F5000012B01D00B231CE02B257C19BB6818001A
:103F6000FFF779FD030023707B191B78002B04D029
:103F70007B191B785BB2002B03DA0F2309E00E23B9
:103F800007E0C0463B687A68B968F868FDF7CCFC82
:103F900003001800BD460CB0B0BDC04600F8FF3F9E
:103FA000F0B58DB002AFF860B9607A601A00FB1C02
:103FB0001A70FB68002B08D0BB68002B05D07B6C07
:103FC000002B02D0FB6C002B02D101235B424AE1A3
:103FD000FB68BA689A60FB68FA1C12781A73382377
:103FE00008229446BC4463441A8813005B019B1A60
:103FF0009B009B18DB001A00FB685A67FB680022D5
:104000001A757B68002B23D1FB1C1B78002B04D076
:10401000FB1C1B785BB2002B02DA01235B4222E11E
:10402000FB1C1B789AB22623FB18C021C9008C46C2
:1040300062441A80FB1C1B789AB22423FB18B0211F
:10404000C9008C4662441A80FB6801221A61D6E0DE
:1040500022257C197B681800FFF71CFD03002380D4
:104060007B191A8890235B019A4231D1FB1C1B7883
:10407000002B04D0FB1C1B785BB2002B02DA01235F
:104080005B42F0E0FB1C1B789AB226217B18C02013
:10409000C000844662441A80FB1C1B789AB2242418
:1040A0003B19B020C000844662441A80FB6801229C
:1040B0001A617B181A88786801230121FFF74FFDE8
:1040C0003B191A88786801230221FFF748FD96E022
:1040D00022217B181A8890235B019A4200D88AE03B
:1040E0007B181A8894235B019A4200D383E021262F
:1040F000BC191D257A19786801230021FFF7FFFC00
:10410000030023702023FC181823FA187868012371
:104110000121FFF70CFD030023701F23FC1814235B
:10412000FA18786801230221FFF701FD03002370CC
:10413000BB191B785BB2002B13D17B191B78022BA8
:1041400003D07B191B78032B0BD12023FB181B7882
:104150005BB2002B05D11F23FB181B785BB2002B31
:104160000AD07B6D002B04D02223FB181A887B6DAC
:104170001A600C235B4276E0BB69002B05DBBB6950
:104180009BB25B055B0D9AB200E000222623FB1870
:104190001A807B69002B05DB7B699BB25B055B0D9D
:1041A0009AB200E000222423FB181A80FB68FA6808
:1041B0005A65FB682E4A9A65FB682E4ADA65FB68E9
:1041C00054331A001E257C197B6811001800FFF774
:1041D00084FC030023707B191B785BB2002B0DD08D
:1041E0007B6D002B04D02223FB181A887B6D1A608C
:1041F0000C235B4237E001235B4234E0C046FB689E
:1042000000229A63FB687A6C5A64FB684020082598
:104210007A191218482112885A52FB6848247A19D0
:1042200012194A2112885A52FB680022DA64FB688C
:1042300000221A65FB68FA6C1A602623FB181B889B
:104240002422BA1812882E00791909190D88B91973
:1042500009180C88796CF868019200932B002200F1
:10426000FFF7C6FC03001800BD460BB0F0BDC0460A
:104270006B180008F93C0008B0B58CB000AFF860CE
:10428000B9601900FB1D1A703B1D0A1C1A80FB68DF
:10429000A0229B58FB62FB681B6F002B00D17DE0C6
:1042A000FB685B6E002B15D0FB689A6EFB685B6E3B
:1042B0009A420FD0FB689A6EFB685B6E9A4201D9F6
:1042C0007B4A00E07B4ABB681A60FB6801221A75D2
:1042D0000023E9E0FB681B6ABB62FB6828229B5C49
:1042E0005BB2002B3EDABB6A002B04D0FB689B6EEE
:1042F000BA6A9A4236D9FB68A0229B580233202B17
:1043000030D8FB68A0229B58591CFA68A020115095
:10431000FA687C21D3185B1800221A70FB689B6E28
:104320005A1CFB689A66BB6A002B04D0FB689B6E24
:10433000BA6A9A4211D9FB68A0229B58591CFA68A4
:10434000A0201150FA687C21D3185B1800221A7043
:10435000FB689B6E5A1CFB689A66FB689A6EFB684A
:104360001A622DE0BB6A002B04D1FB689A6EFB68D1
:104370001A6225E0FB689B6EBA6A9A4220D0FB68FD
:104380009B6EBA6A9A4201D2494A00E0494ABB6828
:104390001A60FB6801221A75002385E0FB685B6EDA
:1043A000002B0DD0FB689A6EFB685B6E9A4207D9B2
:1043B000BB683F4A1A60FB6801221A75002373E04C
:1043C00000237B61FB6818331800FFF772FB0300C2
:1043D0007B627B6A002B08D0FB681B68EFF31082BE
:1043E000FA61FA695A6372B6C046FB681D6BFB68D6
:1043F00018331800FB687C331900FB68A0229A5818
:104400002323FC181423FB18A847030023707B6A9E
:10441000002B07D0FB681B685B6BBB61BB6983F338
:104420001088C046FB68A022002199502322BB18A7
:104430001B785BB2002B12D0BB181B785BB2013328
:104440000DD0BB181B785BB21800FDF767FC0200AB
:10445000BB681A60FB6801221A75002324E0FB6820
:104460001B6F002B0DD02323FB181B785BB201338D
:1044700007D1BB680F4A1A60FB6801221A75002336
:1044800012E0FB681B6F002B0DD12323FB181B7858
:104490005BB2002B07D1BB68054A1A60FB6801229A
:1044A0001A75002300E001231800BD460CB0B0BD12
:1044B0001200070613000706B0B58EB000AFF86013
:1044C000B9607A603B60FB68A0229A58FB68A4211F
:1044D0005B58D31AFB62FB681B6F002B00D0B9E05E
:1044E000FA6A7B689A4200D3B4E0FB687C33180018
:1044F000FB687C331A00FB68A4215B58D318FA6A66
:1045000019000AF0D4FEFB68A42200219950FB6830
:10451000A021FA6A5A50FB6A2022D31ABB620023F8
:104520007B61FB687C331A00FB6AD3187B62FB68F3
:1045300018331800FFF7BDFA03003B623B6A002BFB
:1045400008D0FB681B68EFF31082FA61FA695A63BE
:1045500072B6C046FB68DD6AFB6818331800372363
:10456000FC181423FB18BA6A796AA8470300237061
:104570003B6A002B07D0FB681B685B6BBB61BB69A8
:1045800083F31088C0463722BB181B785BB2002B20
:1045900012D0BB181B785BB201330DD0BB181B784F
:1045A0005BB21800FDF7BAFB0200BB681A60FB683B
:1045B00001221A7500234EE07B69002B25D0FB6891
:1045C00028229B5C5BB2002B1FDA7B697A6AD318C6
:1045D00000221A707B6A1800FBF796FD03003B630C
:1045E0003B6B002B01D101233B637B693A6B9A4201
:1045F0000BD23B6B7B613723FB1800221A70FB68E0
:104600009A6E7B69D218FB681A627A69FB6AD218C3
:10461000FB68A0215A50FB68A0229B58002B05D0B4
:104620003723FB181B785BB2013310D1FB680022E3
:104630001A67FB68A0229B587A689A420AD9BB681D
:10464000074A1A60FB6801221A75002303E0FB6821
:1046500001221A6701231800BD460EB0B0BDC04646
:1046600047000406B0B59AB000AFF860B9607A6050
:104670003B60FB68002B03D102235B4200F0ECFCA3
:1046800067217B1801221A700023BB62FB689B6BB9
:104690005A1E9341DBB27B65FB681B69002B0BD074
:1046A000FB681B7DDBB2002B06D17B6D002B03D199
:1046B0007B1800221A70C3E2BB68002B03D0FB6892
:1046C0001B69002B0AD1FB6800221A75FB680022C7
:1046D0009A636723FB1800221A70B1E27B6D002BEE
:1046E00000D1ADE2FB681B7DDBB2002B00D0D0E037
:1046F00000233B66FB683C229B5C1A00F0231340BE
:10470000202B03D1FB6811221A750FE0FB683C22B5
:104710009B5C402B05D101233B66FB6821221A7567
:1047200004E0C54BBB62FB6801221A75BB6A002B13
:1047300065D1FB683E229B5C1B021AB2FB683D21DF
:104740005B5C1BB213431BB29AB2FB689A86FB6890
:104750003F22995CFB6836229954FB689A68FB6893
:104760009B8E19001000FDF75CF9FB683622995CFE
:10477000FB6818331A0053257C190023FDF7CCF988
:10478000030023707B191B785BB2002B0BD07B19C5
:104790001B785BB21800FDF7C1FA0300BB62FB682F
:1047A00001221A752BE0FB6828229B5C1A00032368
:1047B000134005D1A14BBB62FB6801221A751EE0B4
:1047C0003B6E002B0CD0FB6828229B5C1A00012357
:1047D000134005D19A4BBB62FB6801221A750EE0AB
:1047E0003B6E002B0BD1FB6828229B5C1A00022336
:1047F000134004D1934BBB62FB6801221A753B6ED8
:10480000002B46D0BB6A002B43D1FB68A0220021BD
:104810009950FB68A0229A58FB68A4215A50FB6863
:1048200000229A66FB6800221A672823F918F868A4
:1048300000230722FFF740FE031E2AD0FB681B6FF0
:10484000002B1AD0FB681A6AFB685A66FB685B6E1D
:10485000002B05D1FB68A0229A58FB685A6618E025
:10486000FB685A6EFB68A0215B589A4211D0764BC8
:10487000BB62FB6801221A750BE0FB6828229B5C77
:104880005BB2002B02DBFB681A6A00E00022FB68C7
:104890005A66FB681B7DDBB2002B00D1C5E1FB68CB
:1048A0001B7DDBB2012B00D1BFE1FB681B7DDBB2BE
:1048B000232B00D18CE100DDB1E1212B00D183E17C
:1048C00000DDACE1112B03D0132B00D101E1A6E1F7
:1048D000FB683C229B5C1A000223134000D1B9E024
:1048E000FB681B6A7B640423FB65FB683C229B5CC2
:1048F0001A00012313400BD0FB683C229B5C9B08F1
:10490000DBB21A0003231340FA6DD31AFB6507E0EC
:104910007B6C002B04D07B6C032B01D87B6CFB657C
:1049200020203B1800221A6000229A80FB68403346
:104930001900FA6D3B1818000AF0B0FCFB68282239
:104940009B5C5BB2002B17DA7B6C002B03D0FA6DFB
:104950007B6C9A4210D27A6CFB6DD31A3B643B6C31
:10496000012B01D1012300E00223FA6DD318FB656E
:10497000FB68FA6D1A6216E07B6C002B03D1FB68B2
:10498000FA6D1A620FE0FA6D7B6C9A420BD0FA6DE9
:104990007B6C9A4201D92D4B00E02D4BBB62FB682A
:1049A00001221A7544E10023FB61FB6818331800EB
:1049B000FFF77FF80300FB63FB6B002B08D0FB685D
:1049C0001B68EFF310823A633A6B5A6372B6C046C3
:1049D000FB681D6BFB68183318003B23FC181C2375
:1049E000FB18FA6D20217918A84703002370FB6B90
:1049F000002B07D0FB681B685B6BFB62FB6A83F3D1
:104A00001088C0463B22BB181B785BB2002B0BD032
:104A1000BB181B785BB21800FDF780F90300BB627E
:104A2000FB6801221A7503E1FB6812221A75FB6804
:104A300001221A67FCE0C0460100040500000106DF
:104A400001000106020001064700040612000706E5
:104A500013000706FB683C229B5C1A0001231340ED
:104A60002DD0FB681B6ABB64FB6840331900182318
:104A7000FB18042218000AF011FCBA69FB685A6698
:104A8000BB6C002B1ED0FB685B6EBA6C9A4205D2E1
:104A9000C74BBB62FB6801221A75C9E0FB685B6EFD
:104AA000BA6C9A420ED9FB6828229B5C5BB2002B41
:104AB00008DBC04BBB62FB6801221A75B8E0FB68DB
:104AC00000225A66FB6812221A75FB6800221A67D8
:104AD000AEE0FB683C229B5C1A00E02313406DD1E2
:104AE000FB683C229B5C1A00012313405A1E934131
:104AF000DBB21A00FB681A67FB683C229A5C512003
:104B00003B1810210A401A70FB686C229B5C3A1813
:104B100012789A4205D0A84BBB62FB6801221A7535
:104B200086E0FB683C229B5C5B08DBB2DB431A003F
:104B300007231340FB64FB687C331A00FB68A02149
:104B40005B58D018FB683D33FA6C19000AF0A6FBDD
:104B5000FB68A0229A58FB6CD218FB68A0215A501F
:104B6000FB689A6EFB6CD218FB689A66FB681B6A3E
:104B7000002B0BD0FB689A6EFB681B6A9A4205D922
:104B80008B4BBB62FB6801221A7551E0FB681B6FFF
:104B9000002B06D1FB68A0229B582022D31A082B99
:104BA00008D82823F918F86800230022FFF764FBCF
:104BB000031E3CD0FB6814221A7539E07F4BBB62A0
:104BC000FB6801221A7533E0FB6822221A752FE078
:104BD000FB683C229B5C1A00EF231340602B18D12A
:104BE000FB683C229A5C52203B1810210A401A7044
:104BF000FB686C229B5C3A1812789A4205D06E4B87
:104C0000BB62FB6801221A7512E0FB6824221A7548
:104C10000EE06A4BBB62FB6801221A7508E0674B25
:104C2000BB62FB6801221A7502E0C04600E0C04684
:104C3000FB6800229A6700237B60FB6800229A636E
:104C40006723FB181B785BB2012B1FD1FB689A6F9F
:104C5000FB685B6F9A4205D2FB689A6F7B68D2183B
:104C6000FB689A67FB689A6FFB685B6F9A4204D394
:104C7000534BBB62FB6801221A75FB685B681B69BA
:104C8000002B03D06723FB1804221A706723FB183C
:104C90001B785BB2012B00D099E1FB685B680533A0
:104CA0000822002118000AF015FBFB681B7DDBB20F
:104CB000242B00D1F2E000DD8BE1222B00D181E03A
:104CC00000DD86E1122B02D0142B42D081E1FB687B
:104CD0005B6860225A71FB689A8EFB685B68D2B28F
:104CE0009A71FB689B8E1B0A9AB2FB685B68D2B212
:104CF000DA71FB685B68FA683621525C1A72FB68ED
:104D000000229A67FB681A68FB685B68190010004C
:104D100003F00EF9FB681B6F002B07D0FB68002225
:104D20001A756723FB1800221A7055E1FB686C2284
:104D300000219954FB6800229A66FB68A02200219A
:104D40009950FB68A42200219950FB6813221A7520
:104D500042E1FB686C229A5CFB685B6820210A4395
:104D6000D2B25A71FB686C229B5C002B01D11021DE
:104D700000E00021FB686C229954FB6800229A67CE
:104D8000FB681A68FB685B681900100003F0D0F834
:104D9000FB681B6F002B07D0FB6800221A75672386
:104DA000FB1800221A7017E1FB6813221A7513E131
:104DB00012000706130007060000030501000405A2
:104DC00000000405FB685B6E002B25D0FB685B6E62
:104DD000042B21D8FB685B6EDBB20422D31ADBB252
:104DE0009B00DAB2FB685B6843210A43D2B25A7176
:104DF000FB685B6809331800FB687C331900FB68AB
:104E00005B6E1A000AF04AFAFB6800221A756723E3
:104E1000FB1800221A7024E0FB685B6E002B12D096
:104E2000FB685B6E7B637B6B7B61FB685B6841222D
:104E30005A71FB685B6809331422B9180422180000
:104E40000AF02CFA03E0FB685B6840225A71FB68A9
:104E50006C2200219954FB6800229A67FB68232288
:104E60001A75FB689A8EFB685B68D2B29A71FB6810
:104E70009B8E1B0A9AB2FB685B68D2B2DA71FB6840
:104E80005B68FA683621525C1A72FB681A68FB6824
:104E90005B681900100003F04BF89DE02823F91817
:104EA000F86800230722FFF707FB031E00D192E0FA
:104EB000FB685B68FA686C21525C5A71FB686C2273
:104EC0009B5C002B01D1102100E00021FB686C22CB
:104ED0009954FB68A0229A58FB68A4215B58D31A06
:104EE000BB65BB6D062B06D9FB681B6F002B1CD066
:104EF000BB6D072B19D1FB685B685A79BB6DDBB2C0
:104F00000721CB1ADBB2DB18DBB21343DAB2FB6842
:104F10005B6801210A43D2B25A71FB6800221A75FC
:104F20006723FB1800221A7007E0FB6800229A67CB
:104F3000FB6823221A750723BB65FB685B68981D15
:104F4000FB687C331A00FB68A4215B58D318BA6D48
:104F500019000AF0A3F9FB68A4229A58BB6DD21875
:104F6000FB68A4215A50FB689A6EBB6DD218FB688F
:104F70009A66FB685B6E002B20D0FB689A6EFB681C
:104F80005B6E9A4205D9364BBB62FB6801221A75EB
:104F900022E067217B181B785BB2002B0ED1FB68E7
:104FA0009A6EFB685B6E9A4208D22E4BBB627B18EE
:104FB00001221A70FB6801221A750DE0FB681A685D
:104FC000FB685B681900100002F0B2FF04E0C04605
:104FD00002E0C04600E0C04667243B191B785BB284
:104FE000012B35D1FB681B7DDBB2012B30D1BB6AB5
:104FF0003B61FB685B6880225A71FB689A8EFB6894
:105000005B68D2B29A71FB689B8E1B0A9AB2FB68EE
:105010005B68D2B2DA71FB685B68FA683621525C71
:105020001A72FB685B6809331022B9180422180051
:105030000AF034F9FB681A68FB685B681900100015
:1050400002F076FFFB6800221A753B19F6221A70EF
:105050006723FB181B785BB21800BD461AB0B0BDC1
:10506000120007061300070680B584B000AF786011
:105070007B681A780F217B181A707B181B78180030
:10508000BD4604B080BD80B584B000AF786079685B
:105090000C23FB18042218000AF009F9FB68180019
:1050A000BD4604B080BD80B582B000AF78607B683B
:1050B000002B02D07B681B8800E000231800BD464F
:1050C00002B080BD80B582B000AF786039607B6887
:1050D000002B01D1052303E07B683A689A60002326
:1050E0001800BD4602B080BD80B586B002AFF86042
:1050F0007A603B600B203B180A1C1A707A683B18D8
:105100001978F8683B6800930123FCF725FE03003B
:105110001800BD4604B080BD80B586B002AFF8600F
:105120007A603B600B203B180A1C1A707A683B18A7
:105130001978F8683B6800930423FCF70DFE030020
:105140001800BD4604B080BD80B582B000AF786065
:105150007B689B7C0133DAB27B689A747B689A7CAB
:105160007B685B7C9A4202D97B6801229A747B68D7
:1051700000229A617B68DB685A425341DBB21A0015
:105180007B68DA607B689B6A7A68927C5A717B687C
:105190009A6C7B689B6A1900100002F0C9FE03003C
:1051A0001800BD4602B080BD80B586B000AF786003
:1051B00039607B683B610F217B183A6812791A705D
:1051C00000237B613B695B7C002B0FD17B181B7834
:1051D000002B02D101237B6120E00F23FB181B78F9
:1051E00040221343DAB23B691A7217E00F23FB180F
:1051F0001B78012B09D13B680533BB60BB681A786B
:105200003B699A7401237B6108E00F23FB181B782C
:10521000802252421343DAB23B691A727B69002B37
:105220000AD03B69DB685A425341DBB21A003B6942
:10523000DA603B6901225A60C046BD4606B080BDB7
:10524000F0B58FB004AFF860B9607A603B60FB687E
:10525000002B0CD0FB685B7C002B08D1BB68002BBB
:1052600005D07B68042B02D13B68002B01D10923B8
:10527000C6E0FB685B687B62BB681800FFF703FF52
:1052800003003B623B6A9AB21E217B185205520D05
:105290001A803A6A8023DB0513405A1E9341DBB221
:1052A000BB613B6A584A13404BD17B181B887F2B4C
:1052B00047D97B181A8880235B009A4205D97B184E
:1052C0001A88C0235B009A423BD91E217B181A889A
:1052D000B023DB009A4205D97B181A88C023DB0073
:1052E0009A422ED31E217B181A88C023DB009A42D3
:1052F00005D97B181A88D023DB009A4221D31E21BE
:105300007B181A88DC23DB009A4205D37B181A88A5
:10531000E023DB009A4214D31E217B181A88E02375
:10532000DB009A420DD87B6A5B6A002B0BD0BB690D
:10533000002B08D07B6A44229B5A7A1812889A4222
:1053400001D00F235CE07B6A44229B5A1E26BA19C7
:1053500012889A4241D07B6AD86A7B6A198E1723D9
:10536000FC182A4DBB191A88294B02937B6A0193BA
:10537000002300932B0002F0ABFC030023701723E3
:10538000FB181B785BB2002B01D0092338E07B6A45
:10539000986C7B6A4C22995A7B6A5B7C5A1E9341BB
:1053A000DBB21C001E23FB181A8800230193009413
:1053B000002302F0F5FC02007B6A9A627B6A9B6A1A
:1053C000002B04D17B6A00225A62092318E07B6A11
:1053D0001E22BA18442112885A527B6ABA695A624C
:1053E000BB69002B05D07B6A00229A747B6A00227D
:1053F0009A613B687A68B968F868FCF795FA030027
:105400001800BD460BB0F0BD00F8FFBFFF0700005D
:10541000A9510008B0B588B002AFF860B9607A60F1
:105420003B60FB68002B0CD0FB685B7C002B08D139
:10543000BB68002B05D07B68012B02D13B68002B99
:1054400001D1092348E0FB685B687B6113257C1967
:10545000BB681800FFF708FE030023707B191B7858
:10546000012B03D07B191B78F02B01D90F2333E0DC
:105470007B69DB691B68002B01D017232CE07B695B
:10548000986C7B694C22995A7B6944229A5A13235F
:10549000FB181B785C1EA341DBB21C0000230193A8
:1054A0000094002302F07CFC02007B699A627B6915
:1054B0009B6A002B04D17B6900225A6209230BE00E
:1054C0007B691322BA1812785A743B687A68B968F3
:1054D000F868FCF729FA03001800BD4606B0B0BD15
:1054E000F0B58DB004AFF860B9607A603B60FB68DE
:1054F000002B0ED0BB68002B0BD07B68002B08D094
:105500003B68002B05D0BB6C002B02D03B6C002B02
:1055100002D101235B422AE1FB68602200211800CE
:1055200009F0D8FE8023BB611F257C191823FA18C7
:10553000786801230021FFF7EFFD030023707B193A
:105540001B785BB2002B0DD03B6D002B07D07B6826
:105550001800FFF7A8FD03001A003B6D1A600C232A
:105560005B4204E1FB68FA685A63FB68824A9A630B
:10557000FB68824ADA63FB6834331A007B681100E7
:105580001800FFF79FFD3868002304220021FCF774
:105590005BFC0200FB68DA61FB68DB69002B0DD164
:1055A0003B6D002B07D03B681800FFF77CFD030024
:1055B0001A003B6D1A600C235B42D8E0B86B0023E5
:1055C00004220021FCF740FC0200FB681A62BB6B5E
:1055D000002B11D0FB681B6A002B0DD13B6D002BFB
:1055E00007D0BB6B1800FFF75EFD03001A003B6D90
:1055F0001A600C235B42BAE017217B1800221A7054
:10560000FB6B002B3ED01F257C197A18F86B012309
:105610000021FFF769FD030023707B191B785BB243
:10562000002B0DD03B6D002B07D0FB6B1800FFF754
:105630003AFD03001A003B6D1A600C235B4296E0B2
:105640001722BB181B78012B03D1BB1802221A703A
:1056500007E01722BB181B78F02B02D9BB18F022E9
:105660001A70FB68FA681A65FB68434A5A65FB685A
:10567000434A9A65FB6850331A00FB6B110018000F
:10568000FFF720FD1723FB181A78FB685A74FB6894
:10569000BA681A60BA698023DB0513405A1E934129
:1056A000DBB21A00FB685A62BB699BB25B055B0DFB
:1056B00099B2FB6844229952FB683A6CDA62FB6843
:1056C0003C200822B9180A1812881A86FB68BA6C9E
:1056D0009A64FB68442208218C46BC4462444C21F5
:1056E00012885A52BB699BB25B055B0D9AB21E26AB
:1056F000BC19244D0823FB181B181988386C224B41
:105700000293FB680193002300932B0002F0E0FA60
:1057100003002370BB191B785BB2002B03D0BB19AD
:105720001B785BB223E0BB699BB25B055B0D9AB251
:105730001723FB181B78591E8B41DBB21C00442336
:1057400008218C46BC4463441988B86C002301933B
:105750000094002302F024FB0200FB689A62FB68BD
:105760009B6A002B02D101235B4200E0002318005A
:10577000BD4609B0F0BDC0466B1800084152000894
:1057800015540008FF070000A951000880B58AB031
:1057900002AFF860B9607A603B601F23FB180022FB
:1057A0001A70BB68002B00D18FE0FB689B697A6898
:1057B000D3187B61FB689B697A699A4202D9FB68BE
:1057C0007A699A61FB685B68002B09D0FB6800224C
:1057D0009A611F23FB1801221A70FB6800225A608D
:1057E000FB68DB69002B03D0FB68DB691B6800E00A
:1057F00000233B613B69002B35D0FB685B6A002BC3
:105800000DD0FB689B693A699A422CD81F23FB187C
:1058100001221A70FB681800FFF796FC23E0FB6872
:105820001B7C012B1FD13B695B083A69D318BB6114
:10583000BA693B699A4202D201235B42BB61FB68B1
:105840009B69BA699A420ED2FB681868FB689B692B
:10585000812212020093130018220121FBF7BAF8EB
:10586000FB6802221A74FB681B6A002B17D0FB68C6
:105870001B6A1B68002B12D0FB689A69FB681B6AC5
:105880001B689A420BD9FB685B69002B03D11F236D
:10589000FB1802221A70FB6801225A6102E0FB68C1
:1058A00000225A61FB681B7A002B1AD0FB6818682B
:1058B000FB681B7A1A00194B009219220121FBF791
:1058C00089F8FB6800221A720BE0FB6800225A601C
:1058D000FB6800221A72FB6800229A74FB6800229F
:1058E0009A611F23FB181B78012B0FD1FB681B7CCF
:1058F000022B08D1FB6818680023009300231822AC
:105900000021FBF767F8FB6801221A741F23FB18BC
:105910001B781800BD4608B080BDC046408200001C
:1059200090B585B000AF786079680E243B190222EB
:10593000180009F0BCFC3B191B881800BD4605B0D7
:1059400090BD80B584B000AF786079680C23FB18F7
:105950000422180009F0ABFCFB681800BD4604B037
:1059600080BD80B582B000AF78607B68002B02D02C
:105970007B681B8800E000231800BD4602B080BD94
:1059800080B582B000AF786039607B68002B01D1B0
:10599000052303E07B683A689A6000231800BD463F
:1059A00002B080BD80B586B002AFF8607A603B601F
:1059B0000B203B180A1C1A707A683B181978F86893
:1059C0003B6800930423FCF7C7F903001800BD46A9
:1059D00004B080BD80B586B000AF786039607B6868
:1059E0007B6113217B183A6812791A703B68053382
:1059F000FB607B181B78062B08D17B69F9680622AF
:105A0000180009F04BFC7B6901229A61C046BD4633
:105A100006B080BD80B588B000AFF860B9607A602C
:105A20003B60FB68002B0CD0FB685B7C002B08D133
:105A3000BB68002B05D07B68042B02D13B68002B90
:105A400001D109236AE0FB685B68FB61BB68180051
:105A5000FFF777FF0300BB61BB699AB216217B1881
:105A60005205520D1A80BB692E4A13403DD17B1856
:105A70001B887F2B39D97B181A8880235B009A42B8
:105A800005D97B181A88C0235B009A422DD91621AC
:105A90007B181A88B023DB009A4205D97B181A8834
:105AA000C023DB009A4220D316217B181A88C0231A
:105AB000DB009A4205D97B181A88D023DB009A4272
:105AC00013D316217B181A88DC23DB009A4205D3F6
:105AD0007B181A88E023DB009A4206D31623FB18B2
